{
  "contractName": "BlockdemyCoin",
  "abi": [
    {
      "inputs": [],
      "stateMutability": "nonpayable",
      "type": "constructor"
    },
    {
      "inputs": [
        {
          "internalType": "address",
          "name": "receiver",
          "type": "address"
        },
        {
          "internalType": "uint256",
          "name": "amount",
          "type": "uint256"
        }
      ],
      "name": "send",
      "outputs": [],
      "stateMutability": "nonpayable",
      "type": "function"
    },
    {
      "inputs": [],
      "name": "getBalance",
      "outputs": [
        {
          "internalType": "uint256",
          "name": "",
          "type": "uint256"
        }
      ],
      "stateMutability": "view",
      "type": "function"
    }
  ],
  "bytecode": "0x608060405234801561001057600080fd5b506103e86000803373ffffffffffffffffffffffffffffffffffffffff1673ffffffffffffffffffffffffffffffffffffffff16815260200190815260200160002081905550610209806100656000396000f3fe608060405234801561001057600080fd5b50600436106100365760003560e01c806312065fe01461003b578063d0679d3414610059575b600080fd5b6100436100a7565b6040518082815260200191505060405180910390f35b6100a56004803603604081101561006f57600080fd5b81019080803573ffffffffffffffffffffffffffffffffffffffff169060200190929190803590602001909291905050506100ed565b005b60008060003373ffffffffffffffffffffffffffffffffffffffff1673ffffffffffffffffffffffffffffffffffffffff16815260200190815260200160002054905090565b806000803373ffffffffffffffffffffffffffffffffffffffff1673ffffffffffffffffffffffffffffffffffffffff168152602001908152602001600020541161013757600080fd5b806000803373ffffffffffffffffffffffffffffffffffffffff1673ffffffffffffffffffffffffffffffffffffffff16815260200190815260200160002060008282540392505081905550806000808473ffffffffffffffffffffffffffffffffffffffff1673ffffffffffffffffffffffffffffffffffffffff16815260200190815260200160002060008282540192505081905550505056fea264697066735822122009bce10df22a6645c6f5afd5f295267b12511cbab55929bc4df07f657e59532064736f6c634300060c0033",
  "immutableReferences": {},
  "source": "// SPDX-License-Identifier: MIT\npragma solidity ^0.6.12;\n\n// imports\n\n// contrato\n/**\n*Contrato para almacenar los balances del BlockdemyCoin\n* Balance del token\n* address -> cantidad\n*/\n\ncontract BlockdemyCoin {\n    // Variables\n    mapping (address => uint ) balances;\n\n    // Constructor\n    constructor () public {\n        balances[msg.sender] = 1000;\n    }\n\n    // Métodos\n    function send (address receiver, uint amount) public{\n        require(balances[msg.sender] > amount);\n        balances[msg.sender] -= amount;\n        balances[receiver] += amount;\n        \n        // Es equivalente al previo\n        /* if (balances[msg.sender] > amount){\n            balances[msg.sender] -= amount;\n            balances[receiver] += amount;\n        }\n        else {\n            revert();\n        } */\n    }\n\n    function getBalance() public view returns(uint) {\n        return balances[msg.sender];\n    }\n\n}\n\n",
  "sourcePath": "/Users/Warrior/Projects/Blockchain/webinar/3-Truffle-Teams-Part1-5Ago20/truffle-teams/contracts/BlockdemyCoin.sol",
  "compiler": {
    "name": "solc",
    "version": "0.6.12+commit.27d51765.Emscripten.clang"
  },
  "schemaVersion": "3.4.1",
  "updatedAt": "2021-05-30T13:42:00.452Z",
  "devdoc": {
    "kind": "dev",
    "methods": {},
    "version": 1
  },
  "userdoc": {
    "kind": "user",
    "methods": {},
    "notice": "Contrato para almacenar los balances del BlockdemyCoin Balance del token address -> cantidad",
    "version": 1
  }
}